{
  "contractName": "DataContract",
  "abi": [
    {
      "constant": true,
      "inputs": [],
      "name": "name",
      "outputs": [
        {
          "name": "",
          "type": "string"
        }
      ],
      "payable": false,
      "stateMutability": "view",
      "type": "function",
      "signature": "0x06fdde03"
    },
    {
      "constant": true,
      "inputs": [
        {
          "name": "",
          "type": "uint256"
        }
      ],
      "name": "contracts",
      "outputs": [
        {
          "name": "Id",
          "type": "uint256"
        },
        {
          "name": "owner",
          "type": "address"
        },
        {
          "name": "borrower",
          "type": "address"
        },
        {
          "name": "Description",
          "type": "string"
        },
        {
          "name": "createdAt",
          "type": "uint256"
        },
        {
          "name": "effective",
          "type": "bool"
        },
        {
          "name": "signed",
          "type": "bool"
        },
        {
          "name": "length",
          "type": "uint256"
        },
        {
          "name": "stakingBalance",
          "type": "uint256"
        },
        {
          "name": "fileHash",
          "type": "string"
        }
      ],
      "payable": false,
      "stateMutability": "view",
      "type": "function",
      "signature": "0x474da79a"
    },
    {
      "constant": true,
      "inputs": [
        {
          "name": "",
          "type": "uint256"
        }
      ],
      "name": "borrowers",
      "outputs": [
        {
          "name": "",
          "type": "address"
        }
      ],
      "payable": false,
      "stateMutability": "view",
      "type": "function",
      "signature": "0x7924d93f"
    },
    {
      "constant": true,
      "inputs": [],
      "name": "contractCount",
      "outputs": [
        {
          "name": "",
          "type": "uint256"
        }
      ],
      "payable": false,
      "stateMutability": "view",
      "type": "function",
      "signature": "0x8736381a"
    },
    {
      "inputs": [],
      "payable": false,
      "stateMutability": "nonpayable",
      "type": "constructor",
      "signature": "constructor"
    },
    {
      "anonymous": false,
      "inputs": [
        {
          "indexed": false,
          "name": "Id",
          "type": "uint256"
        },
        {
          "indexed": false,
          "name": "owner",
          "type": "address"
        },
        {
          "indexed": false,
          "name": "borrower",
          "type": "address"
        },
        {
          "indexed": false,
          "name": "Description",
          "type": "string"
        },
        {
          "indexed": false,
          "name": "uploadTime",
          "type": "uint256"
        },
        {
          "indexed": false,
          "name": "effective",
          "type": "bool"
        },
        {
          "indexed": false,
          "name": "fileHash",
          "type": "string"
        }
      ],
      "name": "ContractOffered",
      "type": "event",
      "signature": "0x5c91fd5ca9fabbffa77064bce9f3e136f5d46f44ee94406fd9b3b3569972f40b"
    },
    {
      "constant": false,
      "inputs": [
        {
          "name": "_owner",
          "type": "address"
        },
        {
          "name": "_fileDescription",
          "type": "string"
        },
        {
          "name": "_length",
          "type": "uint256"
        },
        {
          "name": "_stakingBalance",
          "type": "uint256"
        },
        {
          "name": "_fileHash",
          "type": "string"
        }
      ],
      "name": "OfferAContract",
      "outputs": [],
      "payable": false,
      "stateMutability": "nonpayable",
      "type": "function",
      "signature": "0x1a3fe3a4"
    }
  ],
  "bytecode": "0x60806040526040805190810160405280600d81526020017f4461746120436f6e7472616374000000000000000000000000000000000000008152506000908051906020019061004f929190610067565b50600060025534801561006157600080fd5b5061010c565b828054600181600116156101000203166002900490600052602060002090601f016020900481019282601f106100a857805160ff19168380011785556100d6565b828001600101855582156100d6579182015b828111156100d55782518255916020019190600101906100ba565b5b5090506100e391906100e7565b5090565b61010991905b808211156101055760008160009055506001016100ed565b5090565b90565b610bf28061011b6000396000f3fe60806040526004361061006d576000357c0100000000000000000000000000000000000000000000000000000000900463ffffffff16806306fdde03146100725780631a3fe3a414610102578063474da79a146102955780637924d93f1461044d5780638736381a146104c8575b600080fd5b34801561007e57600080fd5b506100876104f3565b6040518080602001828103825283818151815260200191508051906020019080838360005b838110156100c75780820151818401526020810190506100ac565b50505050905090810190601f1680156100f45780820380516001836020036101000a031916815260200191505b509250505060405180910390f35b34801561010e57600080fd5b50610293600480360360a081101561012557600080fd5b81019080803573ffffffffffffffffffffffffffffffffffffffff1690602001909291908035906020019064010000000081111561016257600080fd5b82018360208201111561017457600080fd5b8035906020019184600183028401116401000000008311171561019657600080fd5b91908080601f016020809104026020016040519081016040528093929190818152602001838380828437600081840152601f19601f82011690508083019250505050505050919291929080359060200190929190803590602001909291908035906020019064010000000081111561020d57600080fd5b82018360208201111561021f57600080fd5b8035906020019184600183028401116401000000008311171561024157600080fd5b91908080601f016020809104026020016040519081016040528093929190818152602001838380828437600081840152601f19601f820116905080830192505050505050509192919290505050610591565b005b3480156102a157600080fd5b506102ce600480360360208110156102b857600080fd5b81019080803590602001909291905050506108ff565b604051808b81526020018a73ffffffffffffffffffffffffffffffffffffffff1673ffffffffffffffffffffffffffffffffffffffff1681526020018973ffffffffffffffffffffffffffffffffffffffff1673ffffffffffffffffffffffffffffffffffffffff1681526020018060200188815260200187151515158152602001861515151581526020018581526020018481526020018060200183810383528a818151815260200191508051906020019080838360005b838110156103a2578082015181840152602081019050610387565b50505050905090810190601f1680156103cf5780820380516001836020036101000a031916815260200191505b50838103825284818151815260200191508051906020019080838360005b838110156104085780820151818401526020810190506103ed565b50505050905090810190601f1680156104355780820380516001836020036101000a031916815260200191505b509c5050505050505050505050505060405180910390f35b34801561045957600080fd5b506104866004803603602081101561047057600080fd5b8101908080359060200190929190505050610add565b604051808273ffffffffffffffffffffffffffffffffffffffff1673ffffffffffffffffffffffffffffffffffffffff16815260200191505060405180910390f35b3480156104d457600080fd5b506104dd610b1b565b6040518082815260200191505060405180910390f35b60008054600181600116156101000203166002900480601f0160208091040260200160405190810160405280929190818152602001828054600181600116156101000203166002900480156105895780601f1061055e57610100808354040283529160200191610589565b820191906000526020600020905b81548152906001019060200180831161056c57829003601f168201915b505050505081565b6002600081548092919060010191905055506101406040519081016040528060025481526020018673ffffffffffffffffffffffffffffffffffffffff1681526020013373ffffffffffffffffffffffffffffffffffffffff168152602001858152602001428152602001600015158152602001600015158152602001848152602001838152602001828152506003600060025481526020019081526020016000206000820151816000015560208201518160010160006101000a81548173ffffffffffffffffffffffffffffffffffffffff021916908373ffffffffffffffffffffffffffffffffffffffff16021790555060408201518160020160006101000a81548173ffffffffffffffffffffffffffffffffffffffff021916908373ffffffffffffffffffffffffffffffffffffffff16021790555060608201518160030190805190602001906106e7929190610b21565b506080820151816004015560a08201518160050160006101000a81548160ff02191690831515021790555060c08201518160050160016101000a81548160ff02191690831515021790555060e082015181600601556101008201518160070155610120820151816008019080519060200190610764929190610b21565b509050507f5c91fd5ca9fabbffa77064bce9f3e136f5d46f44ee94406fd9b3b3569972f40b60025486338742600087604051808881526020018773ffffffffffffffffffffffffffffffffffffffff1673ffffffffffffffffffffffffffffffffffffffff1681526020018673ffffffffffffffffffffffffffffffffffffffff1673ffffffffffffffffffffffffffffffffffffffff168152602001806020018581526020018415151515815260200180602001838103835287818151815260200191508051906020019080838360005b83811015610851578082015181840152602081019050610836565b50505050905090810190601f16801561087e5780820380516001836020036101000a031916815260200191505b50838103825284818151815260200191508051906020019080838360005b838110156108b757808201518184015260208101905061089c565b50505050905090810190601f1680156108e45780820380516001836020036101000a031916815260200191505b50995050505050505050505060405180910390a15050505050565b60036020528060005260406000206000915090508060000154908060010160009054906101000a900473ffffffffffffffffffffffffffffffffffffffff16908060020160009054906101000a900473ffffffffffffffffffffffffffffffffffffffff1690806003018054600181600116156101000203166002900480601f0160208091040260200160405190810160405280929190818152602001828054600181600116156101000203166002900480156109fd5780601f106109d2576101008083540402835291602001916109fd565b820191906000526020600020905b8154815290600101906020018083116109e057829003601f168201915b5050505050908060040154908060050160009054906101000a900460ff16908060050160019054906101000a900460ff1690806006015490806007015490806008018054600181600116156101000203166002900480601f016020809104026020016040519081016040528092919081815260200182805460018160011615610100020316600290048015610ad35780601f10610aa857610100808354040283529160200191610ad3565b820191906000526020600020905b815481529060010190602001808311610ab657829003601f168201915b505050505090508a565b600181815481101515610aec57fe5b906000526020600020016000915054906101000a900473ffffffffffffffffffffffffffffffffffffffff1681565b60025481565b828054600181600116156101000203166002900490600052602060002090601f016020900481019282601f10610b6257805160ff1916838001178555610b90565b82800160010185558215610b90579182015b82811115610b8f578251825591602001919060010190610b74565b5b509050610b9d9190610ba1565b5090565b610bc391905b80821115610bbf576000816000905550600101610ba7565b5090565b9056fea165627a7a723058206fff85b86ce33f45e036294786df49a5d8ab8e121bbad86c5e7422e0045ae66f0029",
  "source": "pragma solidity ^0.5.0;\n\ncontract DataContract {\n    string public name = \"Data Contract\";\n    address[] public borrowers;\n    uint256 public contractCount = 0;\n    mapping(uint256 => Contract) public contracts;\n\n    struct Contract {\n        uint256 Id;\n        address payable owner;\n        address borrower;\n        string Description;\n        uint256 createdAt;\n        bool effective;\n        bool signed;\n        uint256 length;\n        uint256 stakingBalance;\n        string fileHash;\n    }\n\n    event ContractOffered(\n        uint256 Id,\n        address payable owner,\n        address borrower,\n        string Description,\n        uint256 uploadTime,\n        bool effective,\n        string fileHash\n    );\n\n    constructor() public {}\n\n    function OfferAContract(\n        address payable _owner,\n        string memory _fileDescription,\n        uint256 _length,\n        uint256 _stakingBalance,\n        string memory _fileHash\n    ) public {\n        // Increment file id\n        contractCount++;\n\n        // Add File to the contract\n        contracts[contractCount] = Contract(\n            contractCount,\n            _owner,\n            msg.sender,\n            _fileDescription,\n            now,\n            false,\n            false,\n            _length,\n            _stakingBalance,\n            _fileHash\n        );\n        // Trigger an event\n        emit ContractOffered(\n            contractCount,\n            _owner,\n            msg.sender,\n            _fileDescription,\n            now,\n            false,\n            _fileHash\n        );\n    }\n\n    // function SignAContract() public {\n\n    // }\n}\n",
  "sourcePath": "/Users/marxw/Desktop/Voruto/src/contracts/DataContract.sol",
  "compiler": {
    "name": "solc",
    "version": "0.5.0+commit.1d4f565a.Emscripten.clang"
  },
  "schemaVersion": "3.0.1",
  "updatedAt": "2022-05-02T02:05:14.671Z",
  "devdoc": {
    "methods": {}
  },
  "userdoc": {
    "methods": {}
  }
}