{
  "contractName": "DataContract",
  "abi": [
    {
      "constant": true,
      "inputs": [],
      "name": "name",
      "outputs": [
        {
          "name": "",
          "type": "string"
        }
      ],
      "payable": false,
      "stateMutability": "view",
      "type": "function",
      "signature": "0x06fdde03"
    },
    {
      "constant": true,
      "inputs": [
        {
          "name": "",
          "type": "uint256"
        }
      ],
      "name": "contracts",
      "outputs": [
        {
          "name": "Id",
          "type": "uint256"
        },
        {
          "name": "owner",
          "type": "address"
        },
        {
          "name": "borrower",
          "type": "address"
        },
        {
          "name": "Description",
          "type": "string"
        },
        {
          "name": "createdAt",
          "type": "uint256"
        },
        {
          "name": "effective",
          "type": "bool"
        },
        {
          "name": "signed",
          "type": "bool"
        },
        {
          "name": "length",
          "type": "uint256"
        },
        {
          "name": "stakingBalance",
          "type": "uint256"
        },
        {
          "name": "fileHash",
          "type": "string"
        }
      ],
      "payable": false,
      "stateMutability": "view",
      "type": "function",
      "signature": "0x474da79a"
    },
    {
      "constant": true,
      "inputs": [
        {
          "name": "",
          "type": "uint256"
        }
      ],
      "name": "borrowers",
      "outputs": [
        {
          "name": "",
          "type": "address"
        }
      ],
      "payable": false,
      "stateMutability": "view",
      "type": "function",
      "signature": "0x7924d93f"
    },
    {
      "constant": true,
      "inputs": [],
      "name": "contractCount",
      "outputs": [
        {
          "name": "",
          "type": "uint256"
        }
      ],
      "payable": false,
      "stateMutability": "view",
      "type": "function",
      "signature": "0x8736381a"
    },
    {
      "inputs": [],
      "payable": false,
      "stateMutability": "nonpayable",
      "type": "constructor",
      "signature": "constructor"
    },
    {
      "anonymous": false,
      "inputs": [
        {
          "indexed": false,
          "name": "Id",
          "type": "uint256"
        },
        {
          "indexed": false,
          "name": "owner",
          "type": "address"
        },
        {
          "indexed": false,
          "name": "borrower",
          "type": "address"
        },
        {
          "indexed": false,
          "name": "Description",
          "type": "string"
        },
        {
          "indexed": false,
          "name": "uploadTime",
          "type": "uint256"
        },
        {
          "indexed": false,
          "name": "effective",
          "type": "bool"
        },
        {
          "indexed": false,
          "name": "fileHash",
          "type": "string"
        }
      ],
      "name": "ContractOffered",
      "type": "event",
      "signature": "0x5c91fd5ca9fabbffa77064bce9f3e136f5d46f44ee94406fd9b3b3569972f40b"
    },
    {
      "anonymous": false,
      "inputs": [
        {
          "indexed": false,
          "name": "Id",
          "type": "uint256"
        },
        {
          "indexed": false,
          "name": "Date",
          "type": "uint256"
        },
        {
          "indexed": false,
          "name": "fileHash",
          "type": "string"
        }
      ],
      "name": "ContractSigned",
      "type": "event",
      "signature": "0x70fc4a5a11e3284fb5a57558945db8396f3a7ea76f130ddc120ea7f1a38430aa"
    },
    {
      "constant": false,
      "inputs": [
        {
          "name": "_owner",
          "type": "address"
        },
        {
          "name": "_fileDescription",
          "type": "string"
        },
        {
          "name": "_length",
          "type": "uint256"
        },
        {
          "name": "_stakingBalance",
          "type": "uint256"
        },
        {
          "name": "_fileHash",
          "type": "string"
        }
      ],
      "name": "OfferAContract",
      "outputs": [],
      "payable": false,
      "stateMutability": "nonpayable",
      "type": "function",
      "signature": "0x1a3fe3a4"
    },
    {
      "constant": false,
      "inputs": [
        {
          "name": "id",
          "type": "uint256"
        }
      ],
      "name": "SignAContract",
      "outputs": [],
      "payable": false,
      "stateMutability": "nonpayable",
      "type": "function",
      "signature": "0xb5a2123e"
    },
    {
      "constant": false,
      "inputs": [
        {
          "name": "id",
          "type": "uint256"
        }
      ],
      "name": "AccessData",
      "outputs": [
        {
          "name": "",
          "type": "bool"
        }
      ],
      "payable": false,
      "stateMutability": "nonpayable",
      "type": "function",
      "signature": "0x2d929ce6"
    }
  ],
  "bytecode": "0x60806040526040805190810160405280600d81526020017f4461746120436f6e7472616374000000000000000000000000000000000000008152506000908051906020019061004f929190610067565b50600060025534801561006157600080fd5b5061010c565b828054600181600116156101000203166002900490600052602060002090601f016020900481019282601f106100a857805160ff19168380011785556100d6565b828001600101855582156100d6579182015b828111156100d55782518255916020019190600101906100ba565b5b5090506100e391906100e7565b5090565b61010991905b808211156101055760008160009055506001016100ed565b5090565b90565b610e098061011b6000396000f3fe608060405260043610610083576000357c0100000000000000000000000000000000000000000000000000000000900463ffffffff16806306fdde03146100885780631a3fe3a4146101185780632d929ce6146102ab578063474da79a146102fe5780637924d93f146104b65780638736381a14610531578063b5a2123e1461055c575b600080fd5b34801561009457600080fd5b5061009d610597565b6040518080602001828103825283818151815260200191508051906020019080838360005b838110156100dd5780820151818401526020810190506100c2565b50505050905090810190601f16801561010a5780820380516001836020036101000a031916815260200191505b509250505060405180910390f35b34801561012457600080fd5b506102a9600480360360a081101561013b57600080fd5b81019080803573ffffffffffffffffffffffffffffffffffffffff1690602001909291908035906020019064010000000081111561017857600080fd5b82018360208201111561018a57600080fd5b803590602001918460018302840111640100000000831117156101ac57600080fd5b91908080601f016020809104026020016040519081016040528093929190818152602001838380828437600081840152601f19601f82011690508083019250505050505050919291929080359060200190929190803590602001909291908035906020019064010000000081111561022357600080fd5b82018360208201111561023557600080fd5b8035906020019184600183028401116401000000008311171561025757600080fd5b91908080601f016020809104026020016040519081016040528093929190818152602001838380828437600081840152601f19601f820116905080830192505050505050509192919290505050610635565b005b3480156102b757600080fd5b506102e4600480360360208110156102ce57600080fd5b81019080803590602001909291905050506109a3565b604051808215151515815260200191505060405180910390f35b34801561030a57600080fd5b506103376004803603602081101561032157600080fd5b81019080803590602001909291905050506109d7565b604051808b81526020018a73ffffffffffffffffffffffffffffffffffffffff1673ffffffffffffffffffffffffffffffffffffffff1681526020018973ffffffffffffffffffffffffffffffffffffffff1673ffffffffffffffffffffffffffffffffffffffff1681526020018060200188815260200187151515158152602001861515151581526020018581526020018481526020018060200183810383528a818151815260200191508051906020019080838360005b8381101561040b5780820151818401526020810190506103f0565b50505050905090810190601f1680156104385780820380516001836020036101000a031916815260200191505b50838103825284818151815260200191508051906020019080838360005b83811015610471578082015181840152602081019050610456565b50505050905090810190601f16801561049e5780820380516001836020036101000a031916815260200191505b509c5050505050505050505050505060405180910390f35b3480156104c257600080fd5b506104ef600480360360208110156104d957600080fd5b8101908080359060200190929190505050610bb5565b604051808273ffffffffffffffffffffffffffffffffffffffff1673ffffffffffffffffffffffffffffffffffffffff16815260200191505060405180910390f35b34801561053d57600080fd5b50610546610bf3565b6040518082815260200191505060405180910390f35b34801561056857600080fd5b506105956004803603602081101561057f57600080fd5b8101908080359060200190929190505050610bf9565b005b60008054600181600116156101000203166002900480601f01602080910402602001604051908101604052809291908181526020018280546001816001161561010002031660029004801561062d5780601f106106025761010080835404028352916020019161062d565b820191906000526020600020905b81548152906001019060200180831161061057829003601f168201915b505050505081565b6002600081548092919060010191905055506101406040519081016040528060025481526020018673ffffffffffffffffffffffffffffffffffffffff1681526020013373ffffffffffffffffffffffffffffffffffffffff168152602001858152602001428152602001600015158152602001600015158152602001848152602001838152602001828152506003600060025481526020019081526020016000206000820151816000015560208201518160010160006101000a81548173ffffffffffffffffffffffffffffffffffffffff021916908373ffffffffffffffffffffffffffffffffffffffff16021790555060408201518160020160006101000a81548173ffffffffffffffffffffffffffffffffffffffff021916908373ffffffffffffffffffffffffffffffffffffffff160217905550606082015181600301908051906020019061078b929190610d38565b506080820151816004015560a08201518160050160006101000a81548160ff02191690831515021790555060c08201518160050160016101000a81548160ff02191690831515021790555060e082015181600601556101008201518160070155610120820151816008019080519060200190610808929190610d38565b509050507f5c91fd5ca9fabbffa77064bce9f3e136f5d46f44ee94406fd9b3b3569972f40b60025486338742600087604051808881526020018773ffffffffffffffffffffffffffffffffffffffff1673ffffffffffffffffffffffffffffffffffffffff1681526020018673ffffffffffffffffffffffffffffffffffffffff1673ffffffffffffffffffffffffffffffffffffffff168152602001806020018581526020018415151515815260200180602001838103835287818151815260200191508051906020019080838360005b838110156108f55780820151818401526020810190506108da565b50505050905090810190601f1680156109225780820380516001836020036101000a031916815260200191505b50838103825284818151815260200191508051906020019080838360005b8381101561095b578082015181840152602081019050610940565b50505050905090810190601f1680156109885780820380516001836020036101000a031916815260200191505b50995050505050505050505060405180910390a15050505050565b6000600115156003600084815260200190815260200160002060050160009054906101000a900460ff161515149050919050565b60036020528060005260406000206000915090508060000154908060010160009054906101000a900473ffffffffffffffffffffffffffffffffffffffff16908060020160009054906101000a900473ffffffffffffffffffffffffffffffffffffffff1690806003018054600181600116156101000203166002900480601f016020809104026020016040519081016040528092919081815260200182805460018160011615610100020316600290048015610ad55780601f10610aaa57610100808354040283529160200191610ad5565b820191906000526020600020905b815481529060010190602001808311610ab857829003601f168201915b5050505050908060040154908060050160009054906101000a900460ff16908060050160019054906101000a900460ff1690806006015490806007015490806008018054600181600116156101000203166002900480601f016020809104026020016040519081016040528092919081815260200182805460018160011615610100020316600290048015610bab5780601f10610b8057610100808354040283529160200191610bab565b820191906000526020600020905b815481529060010190602001808311610b8e57829003601f168201915b505050505090508a565b600181815481101515610bc457fe5b906000526020600020016000915054906101000a900473ffffffffffffffffffffffffffffffffffffffff1681565b60025481565b60016003600083815260200190815260200160002060050160016101000a81548160ff02191690831515021790555060016003600083815260200190815260200160002060050160006101000a81548160ff0219169083151502179055507f70fc4a5a11e3284fb5a57558945db8396f3a7ea76f130ddc120ea7f1a38430aa8142600360008581526020019081526020016000206008016040518084815260200183815260200180602001828103825283818154600181600116156101000203166002900481526020019150805460018160011615610100020316600290048015610d255780601f10610cfa57610100808354040283529160200191610d25565b820191906000526020600020905b815481529060010190602001808311610d0857829003601f168201915b505094505050505060405180910390a150565b828054600181600116156101000203166002900490600052602060002090601f016020900481019282601f10610d7957805160ff1916838001178555610da7565b82800160010185558215610da7579182015b82811115610da6578251825591602001919060010190610d8b565b5b509050610db49190610db8565b5090565b610dda91905b80821115610dd6576000816000905550600101610dbe565b5090565b9056fea165627a7a72305820cb010e2a2f86fdbcb1deaaa335eece0cb09b85f7df9ce3ed3a847d35911e2ea40029",
  "source": "pragma solidity ^0.5.0;\n\ncontract DataContract {\n    string public name = \"Data Contract\";\n    address[] public borrowers;\n    uint256 public contractCount = 0;\n    mapping(uint256 => Contract) public contracts;\n\n    struct Contract {\n        uint256 Id;\n        address payable owner;\n        address borrower;\n        string Description;\n        uint256 createdAt;\n        bool effective;\n        bool signed;\n        uint256 length;\n        uint256 stakingBalance;\n        string fileHash;\n    }\n\n    event ContractOffered(\n        uint256 Id,\n        address payable owner,\n        address borrower,\n        string Description,\n        uint256 uploadTime,\n        bool effective,\n        string fileHash\n    );\n\n    event ContractSigned(uint256 Id, uint256 Date, string fileHash);\n\n    constructor() public {}\n\n    function OfferAContract(\n        address payable _owner,\n        string memory _fileDescription,\n        uint256 _length,\n        uint256 _stakingBalance,\n        string memory _fileHash\n    ) public {\n        // Increment file id\n        contractCount++;\n\n        // Add File to the contract\n        contracts[contractCount] = Contract(\n            contractCount,\n            _owner,\n            msg.sender,\n            _fileDescription,\n            now,\n            false,\n            false,\n            _length,\n            _stakingBalance,\n            _fileHash\n        );\n        // Trigger an event\n        emit ContractOffered(\n            contractCount,\n            _owner,\n            msg.sender,\n            _fileDescription,\n            now,\n            false,\n            _fileHash\n        );\n    }\n\n    function SignAContract(uint256 id) public {\n        contracts[id].signed = true;\n        contracts[id].effective = true;\n        emit ContractSigned(id, now, contracts[id].fileHash);\n    }\n\n    function AccessData(uint256 id) public returns (bool) {\n        return contracts[id].effective == true;\n    }\n}\n",
  "sourcePath": "/Users/marxw/Desktop/Voruto/src/contracts/DataContract.sol",
  "compiler": {
    "name": "solc",
    "version": "0.5.0+commit.1d4f565a.Emscripten.clang"
  },
  "schemaVersion": "3.0.1",
  "updatedAt": "2022-05-02T20:40:25.169Z",
  "devdoc": {
    "methods": {}
  },
  "userdoc": {
    "methods": {}
  }
}