{
  "contractName": "DataContract",
  "abi": [
    {
      "constant": true,
      "inputs": [],
      "name": "name",
      "outputs": [
        {
          "name": "",
          "type": "string"
        }
      ],
      "payable": false,
      "stateMutability": "view",
      "type": "function",
      "signature": "0x06fdde03"
    },
    {
      "constant": true,
      "inputs": [
        {
          "name": "",
          "type": "uint256"
        }
      ],
      "name": "accessHistory",
      "outputs": [
        {
          "name": "",
          "type": "uint256"
        }
      ],
      "payable": false,
      "stateMutability": "view",
      "type": "function",
      "signature": "0x16d97f5c"
    },
    {
      "constant": true,
      "inputs": [
        {
          "name": "",
          "type": "address"
        }
      ],
      "name": "stakingBalance",
      "outputs": [
        {
          "name": "",
          "type": "uint256"
        }
      ],
      "payable": false,
      "stateMutability": "view",
      "type": "function",
      "signature": "0x45bc78ab"
    },
    {
      "constant": true,
      "inputs": [
        {
          "name": "",
          "type": "uint256"
        }
      ],
      "name": "contracts",
      "outputs": [
        {
          "name": "Id",
          "type": "uint256"
        },
        {
          "name": "owner",
          "type": "address"
        },
        {
          "name": "borrower",
          "type": "address"
        },
        {
          "name": "Description",
          "type": "string"
        },
        {
          "name": "createdAt",
          "type": "uint256"
        },
        {
          "name": "effective",
          "type": "bool"
        },
        {
          "name": "signed",
          "type": "bool"
        },
        {
          "name": "length",
          "type": "uint256"
        },
        {
          "name": "stakingBalance",
          "type": "uint256"
        },
        {
          "name": "fileHash",
          "type": "string"
        }
      ],
      "payable": false,
      "stateMutability": "view",
      "type": "function",
      "signature": "0x474da79a"
    },
    {
      "constant": true,
      "inputs": [
        {
          "name": "",
          "type": "uint256"
        }
      ],
      "name": "temp",
      "outputs": [
        {
          "name": "",
          "type": "uint256"
        }
      ],
      "payable": false,
      "stateMutability": "view",
      "type": "function",
      "signature": "0x6c3755ad"
    },
    {
      "constant": true,
      "inputs": [],
      "name": "contractCount",
      "outputs": [
        {
          "name": "",
          "type": "uint256"
        }
      ],
      "payable": false,
      "stateMutability": "view",
      "type": "function",
      "signature": "0x8736381a"
    },
    {
      "constant": true,
      "inputs": [
        {
          "name": "",
          "type": "uint256"
        }
      ],
      "name": "stakers",
      "outputs": [
        {
          "name": "",
          "type": "address"
        }
      ],
      "payable": false,
      "stateMutability": "view",
      "type": "function",
      "signature": "0xfd5e6dd1"
    },
    {
      "inputs": [],
      "payable": false,
      "stateMutability": "nonpayable",
      "type": "constructor",
      "signature": "constructor"
    },
    {
      "anonymous": false,
      "inputs": [
        {
          "indexed": false,
          "name": "Id",
          "type": "uint256"
        },
        {
          "indexed": false,
          "name": "owner",
          "type": "address"
        },
        {
          "indexed": false,
          "name": "borrower",
          "type": "address"
        },
        {
          "indexed": false,
          "name": "Description",
          "type": "string"
        },
        {
          "indexed": false,
          "name": "uploadTime",
          "type": "uint256"
        },
        {
          "indexed": false,
          "name": "effective",
          "type": "bool"
        },
        {
          "indexed": false,
          "name": "fileHash",
          "type": "string"
        }
      ],
      "name": "ContractOffered",
      "type": "event",
      "signature": "0x5c91fd5ca9fabbffa77064bce9f3e136f5d46f44ee94406fd9b3b3569972f40b"
    },
    {
      "anonymous": false,
      "inputs": [
        {
          "indexed": false,
          "name": "Id",
          "type": "uint256"
        },
        {
          "indexed": false,
          "name": "Date",
          "type": "uint256"
        },
        {
          "indexed": false,
          "name": "fileHash",
          "type": "string"
        }
      ],
      "name": "ContractSigned",
      "type": "event",
      "signature": "0x70fc4a5a11e3284fb5a57558945db8396f3a7ea76f130ddc120ea7f1a38430aa"
    },
    {
      "constant": false,
      "inputs": [
        {
          "name": "_owner",
          "type": "address"
        },
        {
          "name": "_fileDescription",
          "type": "string"
        },
        {
          "name": "_length",
          "type": "uint256"
        },
        {
          "name": "_fileHash",
          "type": "string"
        }
      ],
      "name": "OfferAContract",
      "outputs": [],
      "payable": true,
      "stateMutability": "payable",
      "type": "function",
      "signature": "0x2761b04d"
    },
    {
      "constant": false,
      "inputs": [
        {
          "name": "id",
          "type": "uint256"
        }
      ],
      "name": "SignAContract",
      "outputs": [],
      "payable": false,
      "stateMutability": "nonpayable",
      "type": "function",
      "signature": "0xb5a2123e"
    },
    {
      "constant": false,
      "inputs": [
        {
          "name": "id",
          "type": "uint256"
        }
      ],
      "name": "AccessData",
      "outputs": [
        {
          "name": "",
          "type": "bool"
        }
      ],
      "payable": false,
      "stateMutability": "nonpayable",
      "type": "function",
      "signature": "0x2d929ce6"
    },
    {
      "constant": false,
      "inputs": [],
      "name": "getAccessHistory",
      "outputs": [
        {
          "name": "",
          "type": "uint256[]"
        }
      ],
      "payable": false,
      "stateMutability": "nonpayable",
      "type": "function",
      "signature": "0x07b2b358"
    }
  ],
  "bytecode": "0x60806040526040805190810160405280600d81526020017f4461746120436f6e7472616374000000000000000000000000000000000000008152506000908051906020019061004f929190610067565b50600060025534801561006157600080fd5b5061010c565b828054600181600116156101000203166002900490600052602060002090601f016020900481019282601f106100a857805160ff19168380011785556100d6565b828001600101855582156100d6579182015b828111156100d55782518255916020019190600101906100ba565b5b5090506100e391906100e7565b5090565b61010991905b808211156101055760008160009055506001016100ed565b5090565b90565b6110dc806200011c6000396000f3fe6080604052600436106100af576000357c0100000000000000000000000000000000000000000000000000000000900463ffffffff16806306fdde03146100b457806307b2b3581461014457806316d97f5c146101b05780632761b04d146101ff5780632d929ce61461037b57806345bc78ab146103ce578063474da79a146104335780636c3755ad146105eb5780638736381a1461063a578063b5a2123e14610665578063fd5e6dd1146106a0575b600080fd5b3480156100c057600080fd5b506100c961071b565b6040518080602001828103825283818151815260200191508051906020019080838360005b838110156101095780820151818401526020810190506100ee565b50505050905090810190601f1680156101365780820380516001836020036101000a031916815260200191505b509250505060405180910390f35b34801561015057600080fd5b506101596107b9565b6040518080602001828103825283818151815260200191508051906020019060200280838360005b8381101561019c578082015181840152602081019050610181565b505050509050019250505060405180910390f35b3480156101bc57600080fd5b506101e9600480360360208110156101d357600080fd5b8101908080359060200190929190505050610811565b6040518082815260200191505060405180910390f35b6103796004803603608081101561021557600080fd5b81019080803573ffffffffffffffffffffffffffffffffffffffff1690602001909291908035906020019064010000000081111561025257600080fd5b82018360208201111561026457600080fd5b8035906020019184600183028401116401000000008311171561028657600080fd5b91908080601f016020809104026020016040519081016040528093929190818152602001838380828437600081840152601f19601f82011690508083019250505050505050919291929080359060200190929190803590602001906401000000008111156102f357600080fd5b82018360208201111561030557600080fd5b8035906020019184600183028401116401000000008311171561032757600080fd5b91908080601f016020809104026020016040519081016040528093929190818152602001838380828437600081840152601f19601f820116905080830192505050505050509192919290505050610834565b005b34801561038757600080fd5b506103b46004803603602081101561039e57600080fd5b8101908080359060200190929190505050610ba1565b604051808215151515815260200191505060405180910390f35b3480156103da57600080fd5b5061041d600480360360208110156103f157600080fd5b81019080803573ffffffffffffffffffffffffffffffffffffffff169060200190929190505050610c12565b6040518082815260200191505060405180910390f35b34801561043f57600080fd5b5061046c6004803603602081101561045657600080fd5b8101908080359060200190929190505050610c2a565b604051808b81526020018a73ffffffffffffffffffffffffffffffffffffffff1673ffffffffffffffffffffffffffffffffffffffff1681526020018973ffffffffffffffffffffffffffffffffffffffff1673ffffffffffffffffffffffffffffffffffffffff1681526020018060200188815260200187151515158152602001861515151581526020018581526020018481526020018060200183810383528a818151815260200191508051906020019080838360005b83811015610540578082015181840152602081019050610525565b50505050905090810190601f16801561056d5780820380516001836020036101000a031916815260200191505b50838103825284818151815260200191508051906020019080838360005b838110156105a657808201518184015260208101905061058b565b50505050905090810190601f1680156105d35780820380516001836020036101000a031916815260200191505b509c5050505050505050505050505060405180910390f35b3480156105f757600080fd5b506106246004803603602081101561060e57600080fd5b8101908080359060200190929190505050610e08565b6040518082815260200191505060405180910390f35b34801561064657600080fd5b5061064f610e2b565b6040518082815260200191505060405180910390f35b34801561067157600080fd5b5061069e6004803603602081101561068857600080fd5b8101908080359060200190929190505050610e31565b005b3480156106ac57600080fd5b506106d9600480360360208110156106c357600080fd5b8101908080359060200190929190505050610fcd565b604051808273ffffffffffffffffffffffffffffffffffffffff1673ffffffffffffffffffffffffffffffffffffffff16815260200191505060405180910390f35b60008054600181600116156101000203166002900480601f0160208091040260200160405190810160405280929190818152602001828054600181600116156101000203166002900480156107b15780601f10610786576101008083540402835291602001916107b1565b820191906000526020600020905b81548152906001019060200180831161079457829003601f168201915b505050505081565b6060600180548060200260200160405190810160405280929190818152602001828054801561080757602002820191906000526020600020905b8154815260200190600101908083116107f3575b5050505050905090565b60018181548110151561082057fe5b906000526020600020016000915090505481565b6002600081548092919060010191905055506101406040519081016040528060025481526020018573ffffffffffffffffffffffffffffffffffffffff1681526020013373ffffffffffffffffffffffffffffffffffffffff168152602001848152602001428152602001600015158152602001600015158152602001838152602001348152602001828152506003600060025481526020019081526020016000206000820151816000015560208201518160010160006101000a81548173ffffffffffffffffffffffffffffffffffffffff021916908373ffffffffffffffffffffffffffffffffffffffff16021790555060408201518160020160006101000a81548173ffffffffffffffffffffffffffffffffffffffff021916908373ffffffffffffffffffffffffffffffffffffffff160217905550606082015181600301908051906020019061098a92919061100b565b506080820151816004015560a08201518160050160006101000a81548160ff02191690831515021790555060c08201518160050160016101000a81548160ff02191690831515021790555060e082015181600601556101008201518160070155610120820151816008019080519060200190610a0792919061100b565b509050507f5c91fd5ca9fabbffa77064bce9f3e136f5d46f44ee94406fd9b3b3569972f40b60025485338642600087604051808881526020018773ffffffffffffffffffffffffffffffffffffffff1673ffffffffffffffffffffffffffffffffffffffff1681526020018673ffffffffffffffffffffffffffffffffffffffff1673ffffffffffffffffffffffffffffffffffffffff168152602001806020018581526020018415151515815260200180602001838103835287818151815260200191508051906020019080838360005b83811015610af4578082015181840152602081019050610ad9565b50505050905090810190601f168015610b215780820380516001836020036101000a031916815260200191505b50838103825284818151815260200191508051906020019080838360005b83811015610b5a578082015181840152602081019050610b3f565b50505050905090810190601f168015610b875780820380516001836020036101000a031916815260200191505b50995050505050505050505060405180910390a150505050565b6000600115156003600084815260200190815260200160002060050160009054906101000a900460ff1615151415610c0857600182908060018154018082558091505090600182039060005260206000200160009091929091909150555060019050610c0d565b600090505b919050565b60066020528060005260406000206000915090505481565b60036020528060005260406000206000915090508060000154908060010160009054906101000a900473ffffffffffffffffffffffffffffffffffffffff16908060020160009054906101000a900473ffffffffffffffffffffffffffffffffffffffff1690806003018054600181600116156101000203166002900480601f016020809104026020016040519081016040528092919081815260200182805460018160011615610100020316600290048015610d285780601f10610cfd57610100808354040283529160200191610d28565b820191906000526020600020905b815481529060010190602001808311610d0b57829003601f168201915b5050505050908060040154908060050160009054906101000a900460ff16908060050160019054906101000a900460ff1690806006015490806007015490806008018054600181600116156101000203166002900480601f016020809104026020016040519081016040528092919081815260200182805460018160011615610100020316600290048015610dfe5780601f10610dd357610100808354040283529160200191610dfe565b820191906000526020600020905b815481529060010190602001808311610de157829003601f168201915b505050505090508a565b600481815481101515610e1757fe5b906000526020600020016000915090505481565b60025481565b60016003600083815260200190815260200160002060050160016101000a81548160ff02191690831515021790555060016003600083815260200190815260200160002060050160006101000a81548160ff0219169083151502179055503373ffffffffffffffffffffffffffffffffffffffff166108fc60036000848152602001908152602001600020600701549081150290604051600060405180830381858888f19350505050158015610eeb573d6000803e3d6000fd5b507f70fc4a5a11e3284fb5a57558945db8396f3a7ea76f130ddc120ea7f1a38430aa8142600360008581526020019081526020016000206008016040518084815260200183815260200180602001828103825283818154600181600116156101000203166002900481526020019150805460018160011615610100020316600290048015610fba5780601f10610f8f57610100808354040283529160200191610fba565b820191906000526020600020905b815481529060010190602001808311610f9d57829003601f168201915b505094505050505060405180910390a150565b600581815481101515610fdc57fe5b906000526020600020016000915054906101000a900473ffffffffffffffffffffffffffffffffffffffff1681565b828054600181600116156101000203166002900490600052602060002090601f016020900481019282601f1061104c57805160ff191683800117855561107a565b8280016001018555821561107a579182015b8281111561107957825182559160200191906001019061105e565b5b509050611087919061108b565b5090565b6110ad91905b808211156110a9576000816000905550600101611091565b5090565b9056fea165627a7a72305820516c74ea58d01957b8ada4564a9687c2d06ab3906eb27c7b48fae7cafc6107370029",
  "source": "pragma solidity ^0.5.0;\n\ncontract DataContract {\n    string public name = \"Data Contract\";\n    uint256[] public accessHistory;\n    uint256 public contractCount = 0;\n    mapping(uint256 => Contract) public contracts;\n    uint256[] public temp;\n\n    address[] public stakers;\n    mapping(address => uint256) public stakingBalance;\n\n    struct Contract {\n        uint256 Id;\n        address payable owner;\n        address borrower;\n        string Description;\n        uint256 createdAt;\n        bool effective;\n        bool signed;\n        uint256 length;\n        uint256 stakingBalance;\n        string fileHash;\n    }\n\n    event ContractOffered(\n        uint256 Id,\n        address payable owner,\n        address borrower,\n        string Description,\n        uint256 uploadTime,\n        bool effective,\n        string fileHash\n    );\n\n    event ContractSigned(uint256 Id, uint256 Date, string fileHash);\n\n    constructor() public {}\n\n    function OfferAContract(\n        address payable _owner,\n        string memory _fileDescription,\n        uint256 _length,\n        string memory _fileHash\n    ) public payable {\n        // Increment file id\n        contractCount++;\n\n        // Add File to the contract\n        contracts[contractCount] = Contract(\n            contractCount,\n            _owner,\n            msg.sender,\n            _fileDescription,\n            now,\n            false,\n            false,\n            _length,\n            msg.value,\n            _fileHash\n        );\n        // Trigger an event\n        emit ContractOffered(\n            contractCount,\n            _owner,\n            msg.sender,\n            _fileDescription,\n            now,\n            false,\n            _fileHash\n        );\n    }\n\n    // function deposit(uint256 amount) public payable {\n    //     require(msg.value == amount);\n    // }\n\n    // function withdraw() public {\n    //     msg.sender.transfer(address(this).balance);\n    // }\n\n    // function getBalance() public view returns (uint256) {\n    //     return address(this).balance;\n    // }\n\n    function SignAContract(uint256 id) public {\n        contracts[id].signed = true;\n        contracts[id].effective = true;\n        msg.sender.transfer(contracts[id].stakingBalance);\n        emit ContractSigned(id, now, contracts[id].fileHash);\n    }\n\n    function AccessData(uint256 id) public returns (bool) {\n        if (contracts[id].effective == true) {\n            accessHistory.push(id);\n            return true;\n        } else return false;\n    }\n\n    function getAccessHistory() public returns (uint256[] memory) {\n        return accessHistory;\n    }\n}\n",
  "sourcePath": "/Users/marxw/Desktop/Voruto/src/contracts/DataContract.sol",
  "compiler": {
    "name": "solc",
    "version": "0.5.0+commit.1d4f565a.Emscripten.clang"
  },
  "schemaVersion": "3.0.1",
  "updatedAt": "2022-05-03T02:12:47.677Z",
  "devdoc": {
    "methods": {}
  },
  "userdoc": {
    "methods": {}
  }
}